:100000006F00C06D0000000002020000040200004A
:1000100000000000000000000000000000000000E0
:1000200000000000000000000000000000000000D0
:10003000DA06000000000000DA0600000000000000
:10004000DA060000DA060000DA060000DA06000030
:1000500048020000DA060000DA060000DA060000B6
:10006000DA060000DA060000DA060000DA06000010
:10007000DA060000DA060000DA060000DA06000000
:10008000DA060000DA060000DA06000014020000BA
:10009000DA060000DA060000DA06000000000000C0
:0C00A000730050107D157DFD8280000073
:1000B000511126C022C206C4828282441244A24048
:1000C000310182802A86014593F6150091C232954E
:1000D00085810606F5F9828000000000634E050266
:1000E00063C305042E86AA857D5515C285466378AF
:1000F000B6006356C00006068606E36CB6FE0145F0
:1001000063E4C500918D558D85820582F5FA828064
:100110008682C93F2E8582823305A04063D70500C1
:10012000B305B040C1B7B305B0408682653F330523
:10013000A0408282868263C70500634905005D375F
:100140002E858282B305B040E35B05FE3305A040F7
:10015000513F3305B040828200003D432A876373DC
:10016000C3029377F700BDEFADE5937606FF3D8AB6
:10017000BA960CC34CC30CC74CC74107E36BD7FE00
:1001800011E28280B306C3408A0697020000969669
:100190006780A6002307B700A306B7002306B700B1
:1001A000A305B7002305B700A304B7002304B700D5
:1001B000A303B7002303B700A302B7002302B700CD
:1001C000A301B7002301B700A300B7002300B700C5
:1001D000828093F5F50F93968500D58D9396050152
:1001E000D58D61B793962700970200009696868278
:1001F000E78086FA9680C1171D8F3E96E374C3F898
:10020000A5B701A0B707EFBE37E700E0938707085F
:100210003CC701A0373501408545130505C0EF00F7
:10022000F01185476319F500EF00902883A74181FD
:10023000850723AAF180373501408545130505C0A0
:10024000EF0050117300203041457D2305C537254F
:1002500000001305C597EF1040493735014085452B
:10026000130505C023AA0180EF00B00A01459528B7
:100270004145552373002030EFF29FE34C21372591
:1002800000001305C598EF102044EF00B0510DC5D4
:10029000EF10E04FA545793D05051375F50FEF000B
:1002A000F04EEF10C04EA5457135AA8537250000E8
:1002B0001305459AEF1040411387018193874181CF
:1002C0001443904323A00700B29614C3FDB301E981
:1002D000EFF21FDEC14537150140C923F9BB0145C7
:1002E0008280EFF2FFDC41112A849145094502C06A
:1002F00002C202C402C65925C1473EC00A85B147A1
:100300003EC422C602C26121410145BBEFF25FDA61
:1003100031118545454502C402C602C802C002C269
:10032000EF006078C1472C007C84371501409307AB
:1003300080043EC8F52101456D37D1477C80854753
:100340005C810A8585473EC2992D5101BDB3EFF20C
:100350003FD6AA84056531112E8413050580854595
:1003600002C002C202C402C623180100EF00A0733B
:100370006084373401402C00130504C064862317C1
:1003800001002315010023080100EF00A07385453B
:10039000130504C0EF00007C930730027C8089477E
:1003A0005C810A8585473EC2DD2B054685451305E0
:1003B00004C0EF008077510109B3EFF27FCF5111F4
:1003C00085451305000202C002C202C4E92D93074D
:1003D00000037C8037150140C1473EC48A858D47A4
:1003E000130505403EC22D293101C1B9EFF25FCCA2
:1003F0004924EF00503C716513050520EF0030469D
:10040000B707002083A50702372500001305459B89
:10041000EF10802B852EAA85372500001305459CFB
:10042000EF10802A03A50181EF10C030C535B70554
:100430000000814601469385E52C13858181EF00FC
:1004400070013706000013068627814513858181D8
:10045000EF00900313858181EF009003B1659385D0
:10046000F5B72545ED35373501408545130505C000
:100470004D25A137EF00902B5145EF00B03A130501
:10048000A00EEF00D02F371401400146C1451305DF
:1004900004403129EF0010317DD5B707002003A7B4
:1004A000418183A7C700E310F7FE3735014081453E
:1004B000130505C0B92D05452D350546C145130564
:1004C0000440F526372500001305459DEF10E02177
:1004D00037F400E0832704D11307800893E707016E
:1004E0002328F4D073300730832604D1832704D126
:1004F0004D4593F6060293E787022328F4D083271D
:1005000004D193F7F7FDD58F2328F4D0832704D1A6
:1005100093E787002328F4D097000020E78080AE7F
:10052000832704D14D4593E787002328F4D0970013
:100530000020E78020AD1307800873200730A1B7A3
:10054000EFF21FB7371402401C403707FFF8611164
:1005500093E717001CC05C404145F98F5CC01C400C
:100560003707F7FE7D17F98F1CC01C403707FCFFCB
:100570007D17F98F1CC05C4041777D17F98F5CC0F7
:10058000B7079F001CC4B5211C4C3706020093E737
:1005900007021CCCB717014003A70740938607400A
:1005A0001377F7F023A0E74003A707401367070876
:1005B00023A0E74089479CCA02C002C21C4C3707EF
:1005C0000140A16693E717001CCC5C43D58F5CC348
:1005D0001C404167B7160240D98F1CC009679C4276
:1005E000F18F3EC2824785073EC0924781E782472E
:1005F000E397E7FEB71702409C431397E700635861
:10060000070685473EC2124785476310F706B7279E
:1006100002409843C176FD16719B98C398431367B7
:10062000170098C3B7170240D843D8C3D843758F73
:10063000D8C3D843C166558FD8C39843B7060001C5
:10064000558F98C3984393166700E3DD06FED843A1
:10065000B7160240719BD8C3D84313672700D8C38D
:100660002147DC42B18BE39EE7FE2101B9B402C20F
:1006700059BFEFF2FFA3371702405C433704002055
:100680009146B18B130404026385D700A1466380B1
:10069000D704B7376E01938707601CC0B7160240B6
:1006A000DC420840918313F7F700B70700209387D7
:1006B0000701BA978C23DC4293F5F50F93F70708EF
:1006C0003357B50099E3393C2A8718C0FDB25C4323
:1006D000B777DC02938707C0C9B701A09701002054
:1006E0009381411D138101F51305000A9705002030
:1006F00093854591170600201306869163FAC5007D
:100700008322050023A0550011059105E3EAC5FEEB
:100710001715000013050530970500209385458FB8
:100720001386818063FAC5008322050023A055004B
:1007300011059105E3EAC5FE138581809385418506
:100740006377B500232005001105E36DB5FEB722E0
:10075000000093820288739002308D427390428031
:10076000970200009382028A93E232007390523023
:10077000EFF01FDD97020000938282C7739012345E
:1007800073002030B7F7FF1F03A5477C82805841D4
:10079000032305004C4537060140930706403E976A
:1007A0009346F3FFB1C583250640F58D2320B6405F
:1007B000D043F18ED4C31443B3E6660014C318418A
:1007C00090479346F7FF758E90C7D047F18ED4C7F8
:1007D000144541466399C6009447D98E94C7D447BF
:1007E000558FD8C78280B6979443558F98C382801F
:1007F0001C43F58F1CC38280B70701401387074055
:1008000083A70740584B698F09C77D8D3335A000FA
:10081000828001458280B707014023AAA7408280D9
:10082000944593F7060193F2F60081C7DC41B3E2E9
:10083000F20083D3050093F7F30FA5C3032305004C
:10084000611122C226C081471304800293048004F0
:1008500005473316F70033F7C3006312E60293959A
:1008600027003D473317B7001347F7FF337367007F
:10087000B395B20033E36500639D860050C98507D8
:100880002147E397E7FC12442320650082442101BD
:100890008280E39696FE10C9DDB7828008456D8D93
:1008A0003335A00082800CC982804CC9828019C275
:1008B0000CC982804CC98280370301400327430062
:1008C0009317350063D00702B707C0FFF517F98FFC
:1008D00037070007D98FD9CD370700F07D17798DFD
:1008E000C98F49A8635D0500B707E0FFED17F98FD1
:1008F00037070007D98FBDCD06050581D5B7B707E6
:100900003000931605013376F500C1826313F602B9
:10091000370600F97D16B377C70003274300798EA9
:100920002322C300A1C95581131745003395E60062
:1009300045BF9317B50063D407029357050113F61B
:10094000F7008D47B397C70093C7F7FFF98F3707B5
:100950000007D98F85C1135755011207C1BF5581B3
:1009600012053395A6009347F5FFF98F3707000767
:10097000D98FBDF5370701405CC38280370701403E
:10098000144786058D47B397B70093C7F7FFF58FD8
:100990001CC71C47B315B500DD8D0CC7828083A62C
:1009A0004184854718216390F6021C31639CD7026D
:1009B0003C219A0793E707F8B7E600E093F7F70FB3
:1009C000BA962380F6408546935757003397E60042
:1009D000544189CE938707048A07B7E600E0B697AB
:1009E00098C38280EDF33C219A07F9B793870706F5
:1009F000E5B7371702401C430E0593F777F05D8D7E
:100A000008C38280EFF2CFEA371702405C43914679
:100A10002A84B18B6385D700A1466380D708B73796
:100A20006E01938707601CC0B7160240DC429183B9
:100A300013F7F700B707002093878703BA978C2333
:100A4000DC42184093F5F50F93F707083355B700CC
:100A500081E73A85EFF00FE948C008C448C4B717EA
:100A60000240DC438D46AD83FD8B13D737008A07E8
:100A7000F18BD98F13F6370113F7370063F4C600F3
:100A8000138747FFB707002093874702BA978C2345
:100A9000EFF04FE508C86FF04FE25C43B777DC0238
:100AA000938707C049B799C5371702401C4F5D8D22
:100AB00008CF8280B7170240984F1345F5FF798D14
:100AC00088CF82801E2137370140130707C0C20735
:100AD000C1836306E500370700406316E500BA21CD
:100AE00093F7F7F8D98FFA2193F7F7CFC207C183AD
:100AF000D98F1EA1DE215EB59E211EB5B7370140FC
:100B0000938707C06314F5009C251EB985475EA92D
:100B100082801E2189C593E717001EA18280C2072B
:100B2000C183F99BC207C183CDBF5E2501C6DD8DA0
:100B30004EA5828093C5F5FFFD8DDDBF1E294A2598
:100B4000ED8F4205418189C76D8D3335A0008280CC
:100B50000145828093C5F5FFC205C1810EA982803F
:100B6000EFF20FD51629F577FD17F58FF621DA2567
:100B70002111D58F1EA95625FD779387379FF58FB5
:100B8000D6212A842EC0D58F9625D58FB625D58F10
:100B90005EA55E29C207C18393F7F7CF5D8F5AA97F
:100BA00048008D35B747014093870780824563121F
:100BB000F406C2475A24139517003E9542070E05C6
:100BC00041873E958C41635807048605EFF08FD12D
:100BD000930540062AC0EFF0EFD0824793144500FA
:100BE000930540063E85EFF0AFD25E24C207C18771
:100BF00063D507020E059305400613052503EFF0A4
:100C00006FCE1D89C98CC204C18006A461016FF03A
:100C1000CFCAB24745B78A0555BF120593054006AE
:100C200013052503EFF00FCC3D89E9BF91C55E2583
:100C30000967D98F5EA582805A25F977FD17F98F4C
:100C4000D5BF93F5F51F4EA182800A216D8D3335F6
:100C5000A0008280EFF2CFC57111AE84328481454D
:100C60001306C00236C0EFF04FCF133614003E0615
:100C700005883A0413660608418E32A1824604C5EF
:100C800054A111016FF06FC38A05AA95D0C5828067
:100C900083A6818493878184368709E714D588C326
:100CA000014582806304A7001857C5BF7D55828027
:100CB000EFF20FC003A48184896419E06FF0EFBFE5
:100CC0001C44482082973E2093F7077081C71E205E
:100CD00085071EA014403A2093D7F6016304F5045B
:100CE000ED82F17785069D8A1386F77FB377E6005C
:100CF0009395B600CD8F3EA009476378D700C6070D
:100D00003E05C583C98FF18F3EA01C40954613D781
:100D100087011D8B63E0E6160A079386449E36978B
:100D200018430287F1779387F77F7D8F3AA0F1BF51
:100D30003A2093D6E701858AFD831377F7F0639015
:100D4000D7025C443AA099C3228582971840B7071E
:100D5000F0F8F98F37070101D98F1CC021A0136764
:100D600007083AA0005491BF13D7E701058BFD8314
:100D70006383E7023E2093F7F7F093E707013EA075
:100D80001C4899C3228582971840B707FFF8F98F4E
:100D900037070002D1B71A209307800CE3F4E7FC71
:100DA0003E2093F7F7F093E707053EA01C5099C348
:100DB000228582973E2093F7F78F93E707503EA056
:100DC00055B713D7E701058BFD836391E7043E20F8
:100DD00093F7F7F03EA05C4499C3228582973E20AA
:100DE0003D4793F6F7006388E600138717003D8BB5
:100DF000C19BD98F3EA05C4899C322858297184039
:100E0000B707FFF8F98F37070003B9B71A20930720
:100E1000C003E3F9E7F43E20854613F7F700631CAF
:100E2000D70093F7F7F093E707033EA01C4CB9C334
:100E30002285829781A08946631ED70293F7F7F037
:100E400093E707043EA05C4CDDB713D7E701058BA1
:100E5000FD836385E7023E2093F7F7F093E70701F0
:100E60003EA01C4899C3228582971A209307B0039D
:100E7000E3FCE7F03E2093F7F78F91B71A20930732
:100E8000C003E3F1E7EE3E2093F7F78F93E70710F7
:100E90003DB73A2093D6E701858AFD831377F7F0B3
:100EA000639BD7005C50136707063AA0E38C07EA00
:100EB0002285829745BD136707013AA01C4885BF6C
:100EC000EFF20F9F9145AA8437150140F93A194571
:100ED000912A214493F7140091453715014095CB91
:100EE000EFF07F9C1305004B092237150140914517
:100EF000EFF0BF9B130500197D141374F40FF52058
:100F0000858069F8914537150140EFF0DF996FF062
:100F1000CF9AEFF05F9913050019C12837150140EA
:100F20009145EFF09F981305004BF9B7EFF24F98FA
:100F300051118545414502C002C202C4AD36894700
:100F40007C808A8593078004371501403EC4EFF00A
:100F50003F8D85454145813E91477C80C1473EC4D8
:100F60008A858D47371501403EC2EFF07F8B914552
:100F700037150140EFF03F9331016FF00F94EFF21E
:100F80002F931375F50F2D3F6FF02F939307E00C00
:100F900063E9A700EFF2CF912537514561206FF04B
:100FA000CF918280EFF2CF90894537150140EFF065
:100FB000FF8E6FF08F90EFF2AF8FB707002003A581
:100FC0000702B7157A0093850520EFF0AF911375EE
:100FD000F50F2387A18493175500898F8A073E95C3
:100FE0000E052396A1846FF04F8DEFF26F8C37F4CE
:100FF00000E05C40AA85F99B5CC003C5E184EFF08A
:101000006F8C08C8232404001C4093E717001CC001
:10101000B7F700E0D843058B75DF9843799B98C3F9
:101020006FF0AF89EFF2CF8837F400E05C40AA851B
:10103000F99B5CC003D5C184EFF0CF8808C8232496
:1010400004001C4093E717001CC0B7F700E0D8432A
:10105000058B75DF9843799B98C36FF00F86EFF28D
:101060002F852A8411651111854513051502EFF0AE
:101070009FA3854537052080EFF01F849307000468
:101080007C80371501408D473EC28A85E1471305B4
:1010900005403EC4EFF0CFF822C637440140B70701
:1010A00008006C00130504803ECA02C8231C01001E
:1010B000453C854513050480953E71016FE0FFFFB7
:1010C000EFE21FFF7111AE840144635DC402B747B4
:1010D0000140138707803A859305000432C0B53676
:1010E000B747014013870780024675D533878400D0
:1010F00083050700138507800504C205C181913669
:101100000246E1B7328511016FE03FFB370700204F
:10111000130787041C43938641853E956369D50078
:10112000938601E563E5A60008C33E858280FD57EE
:10113000EDBF411106C62EC00DCD1841AA8705C3CB
:1011400058417D5511CB8546631BD7009847230036
:10115000070023A207000545B2404101828098475D
:10116000824614A39847050798C7D8437D17D8C36C
:10117000DDB705468A85A937F9BF011122CC2EC2F9
:1011800006CE26CA2A8481479305000263450602DB
:101190009245BE95838505008DE563D8C70263D46B
:1011A000E702198E1305000293F526002AC089C5AF
:1011B00001E7930500032EC0858A814495EAB28435
:1011C0000DA08507F1B71D8EF1BF0146E1BF824535
:1011D00022853AC832C63EC4A93FA247324642479A
:1011E000FD14E34690FEB284635306008144058EED
:1011F00063C7E702A68792463387974036978305F1
:10120000070095EDB28463449004635306000146E1
:10121000F2406244D2443305F600056182801D8F9E
:10122000BA8793050003228532C83EC63AC41137F7
:10123000B24722474246FD17EDF7BA9465BF2285B3
:1012400032C63EC4FD35A247324685076DB782459A
:10125000228532C43EC2F13DFD142246924765B755
:10126000397106DE22DC26DA3EC232833A8689ED07
:1012700092469307000301476C08FC86FD3DF2503F
:101280006254D25421618280AA843684AE8791CA86
:10129000294701446317E30063D50500B307B04055
:1012A00005448646A309010213073103938666FCB1
:1012B00036C49A853E8532CA3AC81AC63EC0EFE0A7
:1012C0003FE5A546824732434247524663D4A600D3
:1012D000A2463695130505039306F7FFA30FA7FE55
:1012E0009A853E8532CC3ACA1AC83EC636C0EFE06F
:1012F0007FDFB24742435247624663F9670401CC3D
:1013000029CA9247898BB1C79305D002268532C47A
:101310000D3522467D169247918B95C3064793075C
:10132000100632C4930500032685631EF7021135AB
:10133000930580072685F53B224609047916164752
:10134000924682452685153D229515BFAA870247FC
:101350008DB782469307D0020144A38FF6FE930710
:10136000E7FF3EC04DBFF13393058005E1B701456E
:10137000828001458280130181FD22D026CE06D2D3
:101380002AC4AE82328402C681448385020089ED7C
:10139000A24781C781453E85693B9250025426850C
:1013A000F244130181028280930750026388F500A2
:1013B000224516C88504B53BC24239A8838712006E
:1013C00013871200639CB7002245930550023AC868
:1013D0008D3342478504BA82850245BFD5DB93062B
:1013E000B0026389D70463C8F600930630026386AF
:1013F000D704814705A09306D002638AD7009306DD
:101400000003E398D7FE13872200894721A01387A2
:1014100022008547830607001306B0026383C604D3
:101420006341D60213063002638BC602BA820145BD
:10143000A54681A0138722006DBF13872200914724
:10144000D1BF1306D0026389C60013060003E39FD1
:10145000C6FC93E7270031A005078547C1BF93E786
:1014600047000507E1B713162500329506053A95A2
:10147000850203860200130706FD9375F70FE3F458
:10148000B6FE1307E0029946631EE6008502814618
:10149000A54503860200130606FD1377F60F63F5D4
:1014A000E50236C6038702001306A006630DC70ACD
:1014B0006343E6021306C0046307C70A13068006E7
:1014C000630CC70881452DA813972600BA96860697
:1014D000B29685027DBF130640076306C708130650
:1014E000A0076302C7081306C0068145631AC70038
:1014F000038612008D456314E6008502914585023E
:1015000003860200930300061307100663C4C3009A
:10151000130710049303700663C4C30693035006B5
:10152000635376189303700463C1C3049305500496
:10153000635BB61613073004E310E6EA1840930322
:10154000440016CA230CE1001EC8A30C0100014789
:10155000BE862A862C0849A8038612008145E3111D
:10156000E6FA890271BF8502B1BF93063006E30730
:10157000D6FC63CEC606930680056303D602A9BDDA
:10158000930630076304D60463CBC6029306F006C5
:101590006302D60E9306000793E74700E31ED6E2E8
:1015A0009146639FD50A930384000C40504016CAAD
:1015B0003AC23EC01EC8AA870147C146B9A09306D9
:1015C00050076308D6069306800745BF1840B72624
:1015D0000000930344009385C69F11C3BA85324728
:1015E00016CA1EC8BE862A862245413E0DA09146D7
:1015F0006394D502930384000C40504016CA3AC24B
:101600003EC01EC8AA870547A94622458D33C2435E
:10161000AA941E84D242C9B3B2460C4016C836C240
:101620003AC011042A878546294622451539AA94CD
:1016300061B39146639DD500930384000C405040F4
:1016400016CA3AC23EC01EC8AA87014775BFB24635
:101650000C4016C836C23AC011042A878146E9B741
:10166000B24616C80C40414636C23AC011042A8719
:10167000814665BF9146639ED500930384000C406C
:10168000504016CA3AC23EC01EC8AA870147A146AA
:10169000ADBFB2460C4016C836C23AC011042A8704
:1016A0008146214659B70C401306840040403AC297
:1016B0002A87224532C83EC02286B687A94616CA66
:1016C0004D39AA944244B9B71301C1FD2EC832CA9C
:1016D000AA851008014506C636CC3ACE3ED032C0A7
:1016E0005939B240130141028280411122C426C2FD
:1016F00006C61C21AA840144DC818307310005044D
:1017000099EFA9479305310005460145DC81EFF0CB
:101710003F9B2285B240224492444101828005468B
:10172000930531000145EFF0BF99B38784009C23F6
:10173000DC81E1B7511197F7FF1F9387A79722C26A
:10174000804326C006C41C5CAA848DEB61454D28ED
:10175000B737CDAB08DC9387E7301CC1B7176DE610
:10176000938747235CC1B7E705009387C7EE1CC585
:10177000AD475EA50547814718C95CC91C5CA240FE
:10178000124484CB23AA0700824431018280511184
:1017900097F7FF1F9387079222C2804306C41C5C01
:1017A0008DEB6145B128B737CDAB08DC9387E730C7
:1017B0001CC1B7176DE6938747235CC1B7E70500E7
:1017C0009387C7EE1CC5AD475EA50547814718C97D
:1017D0005CC9005C97070000938747239043084843
:1017E0004C48D44335229307150033B5A7002E95F6
:1017F00048C81CC8A24012440605058131018280F8
:1018000097F7FF1F9387078BAA85884309A041118B
:1018100026C293843500F19806C622C4A104B147BC
:1018200063F5F404B14463E4B4042AC0C52013870B
:10183000818014438247368439E01387C18018437E
:1018400001EB3E8581453EC0692823A6A1808247E1
:101850003E85A6853EC071207D5782476314E5060C
:10186000314798C33E85652029A0E3DE04FAB147DD
:101870001CC10145B240224492444101828018407B
:10188000058F634E07022D466376E60018C03A9432
:1018900004C031A058406392860223A4E1803E85B3
:1018A000BD201305B400130744006199B307E54058
:1018B000F1D33E94098F18C075BFD8C2CDB7A286A8
:1018C00040409DBF130435007198E30385FCB305C8
:1018D000A4403E853EC031207D578247E31AE5FA99
:1018E00041B7511122C22A842E8523A8018406C43F
:1018F000EFF0DF81FD576317F500938701859C4367
:1019000091C31CC0A2401244310182808280828037
:1019100021112AC236C006CAAA8622C826C6328724
:1019200032C4814701450143338666009373170033
:101930003304F50093D2F6010583B33466008607BD
:10194000638503003385840032838606B3E757003E
:1019500061FFAA8789C52245EFE0CFF6AA97024723
:1019600011C71245BA85EFE0EFF5AA97D24042447D
:10197000B2441A85BE8561018280000045585449F1
:10198000342057616B655F75700D0000427574748B
:101990006F6E2049443A20256420436C69636B656F
:1019A00064210A0072616E6428292049443A202586
:1019B00064200A0053797374656D436C6B3A256437
:1019C0000D0A00004368697049443A253038780DA3
:1019D0000A000000456E7465727320536C65657073
:1019E0000D000000300D0000680D0000C20D000069
:1019F0004A0E0000740E0000920E0000286E756CF6
:101A00006C290000000000002D7F954C2DF45158EA
:101A1000E8030000010203040506070801020304AD
:101A200005060708006CDC020204060804080C1016
:101A3000081018201020304020406080010203046C
:101A40000506070801020304050607080401002033
:101A50000000000000000000000000000000000086
:101A60000000000000000000000000000000000076
:101A70000000000000000000000000000000000066
:101A80000000000000000000000000000000000056
:101A90000000000000000000000000000000000046
:101AA0000000000000000000000000000000000036
:0C1AB000000000004C00002000000000BE
:00000001FF
